:03000000020159A1
:0C015900787FE4F6D8FD7581140201A047
:10031800547572653A202020202020202020005388
:0C0328006574203A0909202020200900FB
:0803A800020D001A020F000013
:1002F200E4FDFCC3ED9FEE6480F8EC648098501539
:10030200E4FBFA0BBB00010AEB646E4A70F50DBD0B
:0503120000010C80DE7B
:0103170022C3
:0303B800DFFE2243
:10037600C2A0C2A18F80D2A200C2A27F057E0002C7
:0203860002F281
:030361002430FF46
:10036400D2A0C2A18F80D2A200C2A27F057E0002C9
:0203740002F293
:0F0399007F381203767F0C1203767F06020376FD
:1002BC008F118B128A138914ED7006E5112480803E
:1002CC0004E51124C0FF120376AB12AA13A9141271
:1002DC000025FF601012036474012514F514E43535
:0602EC0013F51380E4226B
:1001E50020900B3090FD050EE50E7002050D209157
:1001F5000B3091FDE50E150E7002150D7FC612032D
:1002050076AE0DAF0E7C007D6412003E7E007F0A47
:10021500CFCDCFCECCCE12003EEF120361AE0DAFE7
:100225000E7C007D0A12003EED1203617FDF120392
:06023500647F4302036434
:04034B008F828E838C
:10034F00E4F9B292AF82AE831202F209B964F3C23A
:01035F00920B
:01036000227A
:10033400D2B4C2B47F1E7E001202F2D2B420B4FD45
:0703440030B4FD20B4FD22DE
:10023B00120334E4FDFCE4FBFA30B4FD7F0F120330
:10024B00B830B40875110130B40580FBE4F511E941
:10025B0025E0F9E51142010BBB00010AEB64084AEA
:10026B0070D774082DF8A6010DBD00010CED6405C7
:05027B004C70C3AF0A46
:01028000225B
:10028100EFFD3395E0F50F8D10EF75F00A120003C5
:10029100F508EF75F00A12000385F0097F86120355
:1002A10076E5082430FF120364E5092430FF1203C8
:0B02B100647FDF1203647F43020364DC
:10038800C2B17F327E001202F2D2B21202F2D2B3AE
:010398002242
:0703B100C2B1C2B2C2B322C7
:1000C9001203997BFF7A037918E4FDFF1202BC7BC6
:1000D900FF7A0379277D01E4FF1202BC12023B1269
:1000E90002811201E5D3E510950EE50D6480F8E56E
:1000F9000F6480984021E510950EFFE50F950DFEE0
:10010900D3EF9402EE6480948040077F017E001251
:10011900034B12038880031203B1C3E510950EE562
:100129000D6480F8E50F6480985021C3E50E9510A1
:10013900FFE50D950FFED3EF9402EE6480948040A5
:10014900077F027E0012034BD2B78090C2B7808C22
:100165000200C9E493A3F8E493A34003F68001F2E7
:1001750008DFF48029E493A3F85407240CC8C3339B
:10018500C4540F4420C8834004F456800146F6DF6A
:10019500E4800B01020408102040809003A8E47E4F
:1001A500019360BCA3FF543F30E509541FFEE4935F
:1001B500A360010ECF54C025E060A840B8E493A326
:1001C500FAE493A3F8E493A3C8C582C8CAC583CA51
:1001D500F0A3C8C582C8CAC583CADFE9DEE780BE09
:0103B000004C
:10000300C2D530F707B2D563F0FF05F030E70CB285
:10001300D5F4048463F0FF05F080018430D502F445
:020023000422B5
:10002500BB010689828A83E0225002E722BBFE02D9
:09003500E32289828A83E493220C
:10003E00C2D5EC30E709B2D5E4C39DFDE49CFCEEDD
:10004E0030E715B2D5E4C39FFFE49EFE120074C3E1
:10005E00E49DFDE49CFC800312007430D507C3E4DC
:06006E009FFFE49EFE224C
:10007400BC000BBE0029EF8DF084FFADF022E4CC70
:10008400F875F008EF2FFFEE33FEEC33FCEE9DEC39
:10009400984005FCEE9DFE0FD5F0E9E4CEFD22ED7F
:1000A400F8F5F0EE8420D21CFEADF075F008EF2FC9
:1000B400FFED33FD4007985006D5F0F222C398FDBA
:0500C4000FD5F0EA2257
:00000001FF
